{
  "transactions": [
    {
      "hash": "0xb6b8e6b79e088bbfe8e902e5022a4215c861b6fd61e8c33df339ff0f07272879",
      "transactionType": "CREATE",
      "contractName": "ERC721Facet",
      "contractAddress": "0xeca2430ce8679b179d87a32694950937981666c7",
      "function": null,
      "arguments": null,
      "transaction": {
        "from": "0xb8cf8e77c2b92ce0c0fb3efa4b04cebfde557695",
        "gas": "0x1432c9",
        "value": "0x0",
        "input": "0x60808060405234601557611170908161001a8239f35b5f80fdfe6080806040526004361015610012575f80fd5b5f3560e01c90816306fdde0314610c9a57508063081812fc14610c46578063095ea7b314610b275780631249c58b14610b0457806318160ddd14610ada57806323b872dd146108815780634cd88b761461055c5780636352211e1461051d57806370a08231146104a35780638467be0d1461041f57806395d89b411461035c578063a22cb4651461028e578063b09afec114610214578063c87b56dd1461011c5763e985e9c5146100c1575f80fd5b34610118576040366003190112610118576100da610d53565b6100e2610d69565b9060018060a01b03165f52600360205260405f209060018060a01b03165f52602052602060ff60405f2054166040519015158152f35b5f80fd5b34610118576020366003190112610118576004355f81815260208190526040902054610152906001600160a01b03161515610e3b565b604051906344e6ef1b60e11b825260048201525f81602481305afa8015610209575f9061018e575b61018a9060405191829182610d29565b0390f35b503d805f833e61019e8183610d7f565b8101906020818303126101185780519067ffffffffffffffff821161011857019080601f830112156101185781516101d581610da1565b916101e36040519384610d7f565b81835260208285010111610118576020815f928261018a96018386015e8301015261017a565b6040513d5f823e3d90fd5b3461011857602036600319011261011857608061025d600435610235610e87565b505f81815260208190526040902054610258906001600160a01b03161515610e3b565b61102d565b60606040519161ffff815116835261ffff602082015116602084015260408101511515604084015201516060820152f35b34610118576040366003190112610118576102a7610d53565b60243590811515809203610118576001600160a01b03169033821461031757335f52600360205260405f20825f5260205260405f2060ff1981541660ff83161790556040519081527f17307eab39ab6107e8899845ad3d59bd9653f200f220920489ca2b5937696c3160203392a3005b60405162461bcd60e51b815260206004820152601960248201527f4552433732313a20617070726f766520746f2063616c6c6572000000000000006044820152606490fd5b34610118575f366003190112610118576040515f60055461037c81610e03565b80845290600181169081156103fb57506001146103b0575b61018a836103a481850382610d7f565b60405191829182610d29565b91905060055f525f5160206110fb5f395f51905f52915f905b8082106103e1575090915081016020016103a4610394565b9192600181602092548385880101520191019092916103c9565b60ff191660208086019190915291151560051b840190910191506103a49050610394565b346101185760203660031901126101185760043561043b610ebc565b801561045e575f5b81811061044c57005b60019061045830610f0a565b01610443565b60405162461bcd60e51b815260206004820152601960248201527f4552433732313a20636f756e74206d757374206265203e2030000000000000006044820152606490fd5b34610118576020366003190112610118576001600160a01b036104c4610d53565b1680156104e1575f526001602052602060405f2054604051908152f35b60405162461bcd60e51b81526020600482015260146024820152734552433732313a207a65726f206164647265737360601b6044820152606490fd5b34610118576020366003190112610118576004355f90815260208181526040909120546001600160a01b0316610554811515610e3b565b604051908152f35b346101185760403660031901126101185760043567ffffffffffffffff81116101185761058d903690600401610dbd565b60243567ffffffffffffffff8111610118576105ad903690600401610dbd565b6004546105b981610e03565b61083c576105c5610ebc565b82519067ffffffffffffffff8211610749576105e090610e03565b601f81116107d4575b50602092601f821160011461076857928192935f9261075d575b50508160011b915f199060031b1c1916176004555b805167ffffffffffffffff811161074957610634600554610e03565b601f81116106e1575b50602091601f8211600114610679579181925f9261066e575b50505f19600383901b1c191660019190911b17600555005b015190508280610656565b601f1982169260055f525f5160206110fb5f395f51905f52915f5b8581106106c9575083600195106106b1575b505050811b01600555005b01515f1960f88460031b161c191690558280806106a6565b91926020600181928685015181550194019201610694565b60055f52601f820160051c5f5160206110fb5f395f51905f52019060208310610734575b601f0160051c5f5160206110fb5f395f51905f5201905b818110610729575061063d565b5f815560010161071c565b5f5160206110fb5f395f51905f529150610705565b634e487b7160e01b5f52604160045260245ffd5b015190508380610603565b601f1982169360045f525f51602061111b5f395f51905f52915f5b8681106107bc57508360019596106107a4575b505050811b01600455610618565b01515f1960f88460031b161c19169055838080610796565b91926020600181928685015181550194019201610783565b60045f52601f820160051c5f51602061111b5f395f51905f52019060208310610827575b601f0160051c5f51602061111b5f395f51905f5201905b81811061081c57506105e9565b5f815560010161080f565b5f51602061111b5f395f51905f5291506107f8565b60405162461bcd60e51b815260206004820152601b60248201527f4552433732313a20616c726561647920696e697469616c697a656400000000006044820152606490fd5b346101185760603660031901126101185761089a610d53565b6108a2610d69565b9060443591825f525f60205260018060a01b0360405f205416916108c7831515610e3b565b6001600160a01b031690818303610a87576001600160a01b0316918215610a4357803314908115610a23575b81156109ff575b50156109a957805f52600160205260405f208054905f1982019182116109955755815f52600160205260405f20805490600182018092116109955755825f525f60205260405f20826001600160601b0360a01b825416179055825f52600260205260405f206001600160601b0360a01b81541690557fddf252ad1be2c89b69c2b068fc378daa952ba7f163c4a11628f55a4df523b3ef5f80a4005b634e487b7160e01b5f52601160045260245ffd5b60405162461bcd60e51b815260206004820152602860248201527f4552433732313a2063616c6c6572206973206e6f74206f776e6572206e6f7220604482015267185c1c1c9bdd995960c21b6064820152608490fd5b5f90815260036020908152604080832033845290915290205460ff169050846108fa565b5f858152600260205260409020546001600160a01b0316331491506108f3565b606460405162461bcd60e51b815260206004820152602060248201527f4552433732313a207472616e7366657220746f207a65726f20616464726573736044820152fd5b60405162461bcd60e51b815260206004820152602560248201527f4552433732313a207472616e736665722066726f6d20696e636f72726563742060448201526437bbb732b960d91b6064820152608490fd5b34610118575f36600319011261011857600754600854810390811161099557602090604051908152f35b34610118575f36600319011261011857610b1c610ebc565b610b2530610f0a565b005b3461011857604036600319011261011857610b40610d53565b60243590815f525f60205260018060a01b0360405f20541690610b64821515610e3b565b8133148015610c24575b15610bc6575f83815260026020526040812080546001600160a01b0319166001600160a01b039390931692831790559091907f8c5be1e5ebec7d5bd14f71427d1e84f3dd0314c0f7b2291e5b200ac8c7c3b9259080a4005b60405162461bcd60e51b815260206004820152603060248201527f4552433732313a2063616c6c6572206973206e6f74206f776e6572206e6f722060448201526f185c1c1c9bdd995908199bdc88185b1b60821b6064820152608490fd5b505f82815260036020908152604080832033845290915290205460ff16610b6e565b34610118576020366003190112610118576004355f81815260208190526040902054610c7c906001600160a01b03161515610e3b565b5f526002602052602060018060a01b0360405f205416604051908152f35b34610118575f366003190112610118575f600454610cb781610e03565b80845290600181169081156103fb5750600114610cde5761018a836103a481850382610d7f565b91905060045f525f51602061111b5f395f51905f52915f905b808210610d0f575090915081016020016103a4610394565b919260018160209254838588010152019101909291610cf7565b602060409281835280519182918282860152018484015e5f828201840152601f01601f1916010190565b600435906001600160a01b038216820361011857565b602435906001600160a01b038216820361011857565b90601f8019910116810190811067ffffffffffffffff82111761074957604052565b67ffffffffffffffff811161074957601f01601f191660200190565b81601f8201121561011857803590610dd482610da1565b92610de26040519485610d7f565b8284526020838301011161011857815f926020809301838601378301015290565b90600182811c92168015610e31575b6020831014610e1d57565b634e487b7160e01b5f52602260045260245ffd5b91607f1691610e12565b15610e4257565b60405162461bcd60e51b815260206004820152601c60248201527f4552433732313a20746f6b656e20646f6573206e6f74206578697374000000006044820152606490fd5b604051906080820182811067ffffffffffffffff821117610749576040525f6060838281528260208201528260408201520152565b303303610ec557565b60405162461bcd60e51b815260206004820152601860248201527f4d756c74697369673a206e6f7420617574686f72697a656400000000000000006044820152606490fd5b6001600160a01b03168015610fe85760075490600182018092116109955781600755815f525f60205260405f20816001600160601b0360a01b825416179055805f52600160205260405f208054906001820180921161099557555f8060405160208101906376f9378d60e01b825285602482015260248152610f8d604482610d7f565b519082305af1503d15610fe3573d610fa481610da1565b90610fb26040519283610d7f565b81525f60203d92013e5b5f7fddf252ad1be2c89b69c2b068fc378daa952ba7f163c4a11628f55a4df523b3ef8180a4565b610fbc565b60405162461bcd60e51b815260206004820152601c60248201527f4552433732313a206d696e7420746f207a65726f2061646472657373000000006044820152606490fd5b90611036610e87565b915f52601e602052600160405f20015480606084015280156110e9575f52601f60205260405f2060ff8154161580156110ec575b6110e9576001018054156110d5575f5260205f205460648106604681105f146110a2575061ffff1682525f60208301525f6040830152565b606111156110c25761ffff905f8452600a1c1660208301525f6040830152565b505f82525f602083015260016040830152565b634e487b7160e01b5f52603260045260245ffd5b50565b50600260018201541061106a56fe036b6384b5eca791c62761152d0c79bb0604c104a5fb6f4eb0703f3154bb3db08a35acfbc15ff81a39ae7d344fd709f28e8600b4aa8c65c6b64bfe7fe36bd19ba2646970667358221220fbba48e3b4f8403a096f3b0a8b1d6b9b7588066bb46360a5f592e6a6ac882b2364736f6c634300081e0033",
        "nonce": "0x72",
        "chainId": "0x85"
      },
      "additionalContracts": [],
      "isFixedGasLimit": false
    },
    {
      "hash": "0x057e0a7debe2ca2e593bedd8926ee20b20723d381c895c5f80598ca4457bfd2b",
      "transactionType": "CALL",
      "contractName": null,
      "contractAddress": "0x5a9e09a12f3513f72161976818e87574bf9ad1e1",
      "function": "propose(bytes)",
      "arguments": [
        "0x1f931c1c00000000000000000000000000000000000000000000000000000000000000600000000000000000000000000000000000000000000000000000000000000000000000000000000000000000000000000000000000000000000000000000030000000000000000000000000000000000000000000000000000000000000000010000000000000000000000000000000000000000000000000000000000000020000000000000000000000000eca2430ce8679b179d87a32694950937981666c700000000000000000000000000000000000000000000000000000000000000010000000000000000000000000000000000000000000000000000000000000060000000000000000000000000000000000000000000000000000000000000000f095ea7b30000000000000000000000000000000000000000000000000000000070a08231000000000000000000000000000000000000000000000000000000008467be0d00000000000000000000000000000000000000000000000000000000081812fc00000000000000000000000000000000000000000000000000000000b09afec1000000000000000000000000000000000000000000000000000000004cd88b7600000000000000000000000000000000000000000000000000000000e985e9c5000000000000000000000000000000000000000000000000000000001249c58b0000000000000000000000000000000000000000000000000000000006fdde03000000000000000000000000000000000000000000000000000000006352211e00000000000000000000000000000000000000000000000000000000a22cb4650000000000000000000000000000000000000000000000000000000095d89b4100000000000000000000000000000000000000000000000000000000c87b56dd0000000000000000000000000000000000000000000000000000000018160ddd0000000000000000000000000000000000000000000000000000000023b872dd000000000000000000000000000000000000000000000000000000000000000000000000000000000000000000000000000000000000000000000000"
      ],
      "transaction": {
        "from": "0xb8cf8e77c2b92ce0c0fb3efa4b04cebfde557695",
        "to": "0x5a9e09a12f3513f72161976818e87574bf9ad1e1",
        "gas": "0xd89dc",
        "value": "0x0",
        "input": "0x37558af5000000000000000000000000000000000000000000000000000000000000002000000000000000000000000000000000000000000000000000000000000003241f931c1c00000000000000000000000000000000000000000000000000000000000000600000000000000000000000000000000000000000000000000000000000000000000000000000000000000000000000000000000000000000000000000000030000000000000000000000000000000000000000000000000000000000000000010000000000000000000000000000000000000000000000000000000000000020000000000000000000000000eca2430ce8679b179d87a32694950937981666c700000000000000000000000000000000000000000000000000000000000000010000000000000000000000000000000000000000000000000000000000000060000000000000000000000000000000000000000000000000000000000000000f095ea7b30000000000000000000000000000000000000000000000000000000070a08231000000000000000000000000000000000000000000000000000000008467be0d00000000000000000000000000000000000000000000000000000000081812fc00000000000000000000000000000000000000000000000000000000b09afec1000000000000000000000000000000000000000000000000000000004cd88b7600000000000000000000000000000000000000000000000000000000e985e9c5000000000000000000000000000000000000000000000000000000001249c58b0000000000000000000000000000000000000000000000000000000006fdde03000000000000000000000000000000000000000000000000000000006352211e00000000000000000000000000000000000000000000000000000000a22cb4650000000000000000000000000000000000000000000000000000000095d89b4100000000000000000000000000000000000000000000000000000000c87b56dd0000000000000000000000000000000000000000000000000000000018160ddd0000000000000000000000000000000000000000000000000000000023b872dd00000000000000000000000000000000000000000000000000000000000000000000000000000000000000000000000000000000000000000000000000000000000000000000000000000000000000000000000000000000",
        "nonce": "0x73",
        "chainId": "0x85"
      },
      "additionalContracts": [],
      "isFixedGasLimit": false
    },
    {
      "hash": "0x97fa35f93693caea3973e4ac3d6f851c8da37df15eb2cca2eafe7b442da8f738",
      "transactionType": "CALL",
      "contractName": null,
      "contractAddress": "0x5a9e09a12f3513f72161976818e87574bf9ad1e1",
      "function": "approve(uint256)",
      "arguments": [
        "5"
      ],
      "transaction": {
        "from": "0xb8cf8e77c2b92ce0c0fb3efa4b04cebfde557695",
        "to": "0x5a9e09a12f3513f72161976818e87574bf9ad1e1",
        "gas": "0x1c69f",
        "value": "0x0",
        "input": "0xb759f9540000000000000000000000000000000000000000000000000000000000000005",
        "nonce": "0x74",
        "chainId": "0x85"
      },
      "additionalContracts": [],
      "isFixedGasLimit": false
    },
    {
      "hash": "0x6245dee6115fc9a04f04985104a76e465a9ad17f22292750b8a1e5a1c6002d6c",
      "transactionType": "CALL",
      "contractName": null,
      "contractAddress": "0x5a9e09a12f3513f72161976818e87574bf9ad1e1",
      "function": "execute(uint256)",
      "arguments": [
        "5"
      ],
      "transaction": {
        "from": "0xb8cf8e77c2b92ce0c0fb3efa4b04cebfde557695",
        "to": "0x5a9e09a12f3513f72161976818e87574bf9ad1e1",
        "gas": "0x8232c",
        "value": "0x0",
        "input": "0xfe0d94c10000000000000000000000000000000000000000000000000000000000000005",
        "nonce": "0x75",
        "chainId": "0x85"
      },
      "additionalContracts": [],
      "isFixedGasLimit": false
    }
  ],
  "receipts": [
    {
      "status": "0x1",
      "cumulativeGasUsed": "0x119012",
      "logs": [],
      "logsBloom": "0x00000000000000000000000000000000000000000000000000000000000000000000000000000000000000000000000000000000000000000000000000000000000000000000000000000000000000000000000000000000000000000000000000000000000000000000000000000000000000000000000000000000000000000000000000000000000000000000000000000000000000000000000000000000000000000000000000000000000000000000000000000000000000000000000000000000000000000000000000000000000000000000000000000000000000000000000000000000000000000000000000000000000000000000000000000000",
      "type": "0x2",
      "transactionHash": "0xb6b8e6b79e088bbfe8e902e5022a4215c861b6fd61e8c33df339ff0f07272879",
      "transactionIndex": "0x2",
      "blockHash": "0xc6ddd75dad64966c1517bc6035a03cffa6096103a4ce16e0ecb7c47116fce1ca",
      "blockNumber": "0x1918d8c",
      "gasUsed": "0xf8987",
      "effectiveGasPrice": "0xfe",
      "from": "0xb8cf8e77c2b92ce0c0fb3efa4b04cebfde557695",
      "to": null,
      "contractAddress": "0xeca2430ce8679b179d87a32694950937981666c7",
      "l1BaseFeeScalar": "0x2710",
      "l1BlobBaseFee": "0x18f1c70",
      "l1BlobBaseFeeScalar": "0x2710",
      "l1Fee": "0x2902df0260",
      "l1GasPrice": "0x197ebebc",
      "l1GasUsed": "0xa03f"
    },
    {
      "status": "0x1",
      "cumulativeGasUsed": "0x1ad1e4",
      "logs": [
        {
          "address": "0x5a9e09a12f3513f72161976818e87574bf9ad1e1",
          "topics": [
            "0x11641d364e926d2bf231c2d36f2a9271390042d717ea334a3e7c983c27a12391",
            "0x0000000000000000000000000000000000000000000000000000000000000005",
            "0x000000000000000000000000b8cf8e77c2b92ce0c0fb3efa4b04cebfde557695"
          ],
          "data": "0x",
          "blockHash": "0xc6ddd75dad64966c1517bc6035a03cffa6096103a4ce16e0ecb7c47116fce1ca",
          "blockNumber": "0x1918d8c",
          "blockTimestamp": "0x69d8d8f8",
          "transactionHash": "0x057e0a7debe2ca2e593bedd8926ee20b20723d381c895c5f80598ca4457bfd2b",
          "transactionIndex": "0x3",
          "logIndex": "0x3",
          "removed": false
        }
      ],
      "logsBloom": "0x00000008000000000000000000000010000000000000000000000000000000000000000000000000000000000000000000000000000000000000000000000000000010000000000000000000000000800000000000000000000000000000000000000000020000000000000000000000800000000000000000000000000000000000000008000000000000000000001000000800000000000000000000000000000000000000000000000000000000000000000000000000000000000000000000000000000000000000000000000004000000000000000000000000000000000000000000000000000020000000000000000000040000000000000000000000",
      "type": "0x2",
      "transactionHash": "0x057e0a7debe2ca2e593bedd8926ee20b20723d381c895c5f80598ca4457bfd2b",
      "transactionIndex": "0x3",
      "blockHash": "0xc6ddd75dad64966c1517bc6035a03cffa6096103a4ce16e0ecb7c47116fce1ca",
      "blockNumber": "0x1918d8c",
      "gasUsed": "0x941d2",
      "effectiveGasPrice": "0xfe",
      "from": "0xb8cf8e77c2b92ce0c0fb3efa4b04cebfde557695",
      "to": "0x5a9e09a12f3513f72161976818e87574bf9ad1e1",
      "contractAddress": null,
      "l1BaseFeeScalar": "0x2710",
      "l1BlobBaseFee": "0x18f1c70",
      "l1BlobBaseFeeScalar": "0x2710",
      "l1Fee": "0x3709d3dbf",
      "l1GasPrice": "0x197ebebc",
      "l1GasUsed": "0xd70"
    },
    {
      "status": "0x1",
      "cumulativeGasUsed": "0x1c08bf",
      "logs": [
        {
          "address": "0x5a9e09a12f3513f72161976818e87574bf9ad1e1",
          "topics": [
            "0x049c28adfe50bcf1b76fd95273b6a24566b9f377e52fddc653c3355248dad07a",
            "0x0000000000000000000000000000000000000000000000000000000000000005",
            "0x000000000000000000000000b8cf8e77c2b92ce0c0fb3efa4b04cebfde557695"
          ],
          "data": "0x",
          "blockHash": "0xc6ddd75dad64966c1517bc6035a03cffa6096103a4ce16e0ecb7c47116fce1ca",
          "blockNumber": "0x1918d8c",
          "blockTimestamp": "0x69d8d8f8",
          "transactionHash": "0x97fa35f93693caea3973e4ac3d6f851c8da37df15eb2cca2eafe7b442da8f738",
          "transactionIndex": "0x4",
          "logIndex": "0x4",
          "removed": false
        }
      ],
      "logsBloom": "0x00000008000000000000000000000010000000000000000000000000000000000000000000000000000000000000000000000800000000000000000000000000000010000000000000000000000000000000000000000000000000000000000000000000000000000000000000000000802000000000000000000000000000000000000000000000000000000000001000000800000000000000000000000000000000000000000000000000000000000000000000000000000000000000000000000000000000000000000000000004000000000000000080000000000000000000000000000000000020000000000000000000040000000000000000000000",
      "type": "0x2",
      "transactionHash": "0x97fa35f93693caea3973e4ac3d6f851c8da37df15eb2cca2eafe7b442da8f738",
      "transactionIndex": "0x4",
      "blockHash": "0xc6ddd75dad64966c1517bc6035a03cffa6096103a4ce16e0ecb7c47116fce1ca",
      "blockNumber": "0x1918d8c",
      "gasUsed": "0x136db",
      "effectiveGasPrice": "0xfe",
      "from": "0xb8cf8e77c2b92ce0c0fb3efa4b04cebfde557695",
      "to": "0x5a9e09a12f3513f72161976818e87574bf9ad1e1",
      "contractAddress": null,
      "l1BaseFeeScalar": "0x2710",
      "l1BlobBaseFee": "0x18f1c70",
      "l1BlobBaseFeeScalar": "0x2710",
      "l1Fee": "0x1997b0830",
      "l1GasPrice": "0x197ebebc",
      "l1GasUsed": "0x640"
    },
    {
      "status": "0x1",
      "cumulativeGasUsed": "0x21ecee",
      "logs": [
        {
          "address": "0x5a9e09a12f3513f72161976818e87574bf9ad1e1",
          "topics": [
            "0x8faa70878671ccd212d20771b795c50af8fd3ff6cf27f4bde57e5d4de0aeb673"
          ],
          "data": "0x00000000000000000000000000000000000000000000000000000000000000600000000000000000000000000000000000000000000000000000000000000000000000000000000000000000000000000000000000000000000000000000030000000000000000000000000000000000000000000000000000000000000000010000000000000000000000000000000000000000000000000000000000000020000000000000000000000000eca2430ce8679b179d87a32694950937981666c700000000000000000000000000000000000000000000000000000000000000010000000000000000000000000000000000000000000000000000000000000060000000000000000000000000000000000000000000000000000000000000000f095ea7b30000000000000000000000000000000000000000000000000000000070a08231000000000000000000000000000000000000000000000000000000008467be0d00000000000000000000000000000000000000000000000000000000081812fc00000000000000000000000000000000000000000000000000000000b09afec1000000000000000000000000000000000000000000000000000000004cd88b7600000000000000000000000000000000000000000000000000000000e985e9c5000000000000000000000000000000000000000000000000000000001249c58b0000000000000000000000000000000000000000000000000000000006fdde03000000000000000000000000000000000000000000000000000000006352211e00000000000000000000000000000000000000000000000000000000a22cb4650000000000000000000000000000000000000000000000000000000095d89b4100000000000000000000000000000000000000000000000000000000c87b56dd0000000000000000000000000000000000000000000000000000000018160ddd0000000000000000000000000000000000000000000000000000000023b872dd000000000000000000000000000000000000000000000000000000000000000000000000000000000000000000000000000000000000000000000000",
          "blockHash": "0xc6ddd75dad64966c1517bc6035a03cffa6096103a4ce16e0ecb7c47116fce1ca",
          "blockNumber": "0x1918d8c",
          "blockTimestamp": "0x69d8d8f8",
          "transactionHash": "0x6245dee6115fc9a04f04985104a76e465a9ad17f22292750b8a1e5a1c6002d6c",
          "transactionIndex": "0x5",
          "logIndex": "0x5",
          "removed": false
        },
        {
          "address": "0x5a9e09a12f3513f72161976818e87574bf9ad1e1",
          "topics": [
            "0x712ae1383f79ac853f8d882153778e0260ef8f03b504e2866e0593e04d2b291f",
            "0x0000000000000000000000000000000000000000000000000000000000000005"
          ],
          "data": "0x",
          "blockHash": "0xc6ddd75dad64966c1517bc6035a03cffa6096103a4ce16e0ecb7c47116fce1ca",
          "blockNumber": "0x1918d8c",
          "blockTimestamp": "0x69d8d8f8",
          "transactionHash": "0x6245dee6115fc9a04f04985104a76e465a9ad17f22292750b8a1e5a1c6002d6c",
          "transactionIndex": "0x5",
          "logIndex": "0x6",
          "removed": false
        }
      ],
      "logsBloom": "0x00000000000000000000000000000010000000000000000000000000000000000000000000000000000000000000000000000000000000000000000000000000000010000000000000000000000000000000004001000000000800000000000000000000000000000000000000000000000000000000000000000000000000000020000000000000000000000000001000000800000000000000000000000000000000000020000000000000000000000000000000000000000020000000000000000000000000000000000000000004000000000000000000000000000000000000000000000000000020000000000000000000000000000000000000000000",
      "type": "0x2",
      "transactionHash": "0x6245dee6115fc9a04f04985104a76e465a9ad17f22292750b8a1e5a1c6002d6c",
      "transactionIndex": "0x5",
      "blockHash": "0xc6ddd75dad64966c1517bc6035a03cffa6096103a4ce16e0ecb7c47116fce1ca",
      "blockNumber": "0x1918d8c",
      "gasUsed": "0x5e42f",
      "effectiveGasPrice": "0xfe",
      "from": "0xb8cf8e77c2b92ce0c0fb3efa4b04cebfde557695",
      "to": "0x5a9e09a12f3513f72161976818e87574bf9ad1e1",
      "contractAddress": null,
      "l1BaseFeeScalar": "0x2710",
      "l1BlobBaseFee": "0x18f1c70",
      "l1BlobBaseFeeScalar": "0x2710",
      "l1Fee": "0x1997b0830",
      "l1GasPrice": "0x197ebebc",
      "l1GasUsed": "0x640"
    }
  ],
  "libraries": [],
  "pending": [],
  "returns": {},
  "timestamp": 1775819000838,
  "chain": 133,
  "commit": "b34b55e"
}