{
  "transactions": [
    {
      "hash": "0x13a793edd92398c828cd8a527310fdf17a4811c00467d7e022d08862fc8ed4a1",
      "transactionType": "CREATE",
      "contractName": "MarketplaceFacet",
      "contractAddress": "0x25c8216be90034a514ecccd52a1c373ab8f8df86",
      "function": null,
      "arguments": null,
      "transaction": {
        "from": "0xb8cf8e77c2b92ce0c0fb3efa4b04cebfde557695",
        "gas": "0x11b037",
        "value": "0x0",
        "input": "0x60808060405234601557610f29908161001a8239f35b5f80fdfe6080806040526004361015610012575f80fd5b5f3560e01c908162e296c7146109bb57508063107a274a1461096d57806312e8e2c3146108af578063305a67a81461081f57806351ed8288146104345780636ea8bc101461041757806382367b2d1461038757806394383f14146102585763a308f2b41461007e575f80fd5b346102545760203660031901126102545760043567ffffffffffffffff8111610254576100af903690600401610b6d565b905f915f5b81811061021557506100c583610eb7565b916100d76100d285610e9f565b610dc6565b908482526100f96100e786610e9f565b602084019690601f1901368837610eb7565b925f905f5b8181106101705750505050602061012060405194606086526060860190610bb4565b918483038286015251918281520193905f5b81811061015157848061014d88878382036040850152610bb4565b0390f35b82516001600160a01b0316865260209586019590920191600101610132565b61017b818386610c3e565b355f52601b60205260ff600260405f2001541661019b575b6001016100fe565b9161020d6001916101ad858588610c3e565b356101b8828b610edf565b526101c4858588610c3e565b355f52601b602052828060a01b0360405f2054166101e28289610edf565b526101ee858588610c3e565b355f52601b6020528260405f200154610207828a610edf565b52610e91565b929050610193565b610220818385610c3e565b355f52601b60205260ff600260405f20015416610240575b6001016100b4565b9261024c600191610e91565b939050610238565b5f80fd5b346102545761026636610b9e565b90805f525f60205261028560018060a01b0360405f2054163314610c62565b805f52601b6020526102a160ff600260405f2001541615610cae565b5f818152601460205260409020546102c2906001600160a01b031615610cfa565b5f818152601860205260409020546102e3906001600160a01b031615610d46565b6102ee821515610be7565b6102f6610d92565b33815260026020820191848352604081019260018452845f52601b60205260405f209160018060a01b039060018060a01b03905116166bffffffffffffffffffffffff60a01b835416178255516001820155019051151560ff801983541691161790556040519182527f50955776c5778c3b7d968d86d8c51fb6b29a7a74c20866b533268e209fc0834360203393a3005b346102545760207f945c1c4e99aa89f648fbfe3df471b916f719e16d960fcec0737d4d56bd6968386103b836610b9e565b815f94929452601b82526103d960018060a01b0360405f2054163314610dec565b835f52601b82526103f360ff600260405f20015416610e38565b6103fe811515610be7565b835f52601b825280600160405f200155604051908152a2005b34610254575f366003190112610254576020601c54604051908152f35b3461025457602036600319011261025457600435805f52601b60205260405f209061046560ff600284015416610e38565b81546001600160a01b0316903382146107c957335f526009602052600160405f205493015480931061077a57601c5480840290848204148415171561069e5761271090046104b38185610e84565b825f52601b6020525f6002604082208281558260018201550155835f52600160205260405f208054905f19820191821161069e5755335f52600160205260405f208054906001820180921161069e57555f838152602081815260408083208054336001600160a01b031991821681179092556002909352922080549091169055156107355783156106f757335f908152600960205260409020819054106106b257335f90815260096020526040808220805484900390556001600160a01b03861682529020805490919080820190811061069e578592556040519081527fddf252ad1be2c89b69c2b068fc378daa952ba7f163c4a11628f55a4df523b3ef60203392a3806105eb575b506040519283527f88863d5e20f64464b554931394e2e4b6f09c10015147215bf26b3ba5070acebe60203394a4005b335f9081526009602052604090208190541061065957335f90815260096020526040812090919081815403905561062481600b54610e84565b600b556040519081527fddf252ad1be2c89b69c2b068fc378daa952ba7f163c4a11628f55a4df523b3ef60203392a3836105bc565b60405162461bcd60e51b815260206004820152601b60248201527f45524332303a206275726e20657863656564732062616c616e636500000000006044820152606490fd5b634e487b7160e01b5f52601160045260245ffd5b60405162461bcd60e51b815260206004820152601b60248201527f45524332303a20696e73756666696369656e742062616c616e636500000000006044820152606490fd5b60405162461bcd60e51b815260206004820152601660248201527545524332303a20746f207a65726f206164647265737360501b6044820152606490fd5b60405162461bcd60e51b815260206004820152601860248201527f45524332303a2066726f6d207a65726f206164647265737300000000000000006044820152606490fd5b60405162461bcd60e51b815260206004820152602160248201527f4d61726b6574706c6163653a20696e73756666696369656e742062616c616e636044820152606560f81b6064820152608490fd5b60405162461bcd60e51b815260206004820152602860248201527f4d61726b6574706c6163653a2073656c6c65722063616e6e6f7420627579206f6044820152673bb7103a37b5b2b760c11b6064820152608490fd5b3461025457602036600319011261025457600435805f52601b60205261085260018060a01b0360405f2054163314610dec565b805f52601b60205261086d60ff600260405f20015416610e38565b805f52601b6020525f600260408220828155826001820155015533907f8e25282255ab31897df2b0456bb993ac7f84d376861aefd84901d2d63a7428a25f80a3005b3461025457602036600319011261025457600435303303610928576103e881116108d857601c55005b60405162461bcd60e51b815260206004820152602260248201527f4d61726b6574706c6163653a206665652063616e6e6f74206578636565642031604482015261302560f01b6064820152608490fd5b60405162461bcd60e51b815260206004820152601860248201527f4d756c74697369673a206e6f7420617574686f72697a656400000000000000006044820152606490fd5b34610254576020366003190112610254576004355f52601b602052606060405f2060018060a01b038154169060ff600260018301549201541690604051928352602083015215156040820152f35b346102545760403660031901126102545760043567ffffffffffffffff8111610254576109ec903690600401610b6d565b9091602435908215610b2b5750610a04811515610be7565b5f5b828110610a0f57005b80610a1d6001928587610c3e565b35805f525f602052610a3b33848060a01b0360405f20541614610c62565b805f52601b602052610a5760ff600260405f2001541615610cae565b805f526014602052610a74838060a01b0360405f20541615610cfa565b805f526018602052610a91838060a01b0360405f20541615610d46565b610a99610d92565b338152600260208201918683526040810192868452845f52601b60205260405f2091878060a01b0390888060a01b03905116166bffffffffffffffffffffffff60a01b8354161782555186820155019051151560ff80198354169116179055604051908482527f50955776c5778c3b7d968d86d8c51fb6b29a7a74c20866b533268e209fc0834360203393a301610a06565b62461bcd60e51b815260206004820152601760248201527f4d61726b6574706c6163653a20656d707479206c6973740000000000000000006044820152606490fd5b9181601f840112156102545782359167ffffffffffffffff8311610254576020808501948460051b01011161025457565b6040906003190112610254576004359060243590565b90602080835192838152019201905f5b818110610bd15750505090565b8251845260209384019390920191600101610bc4565b15610bee57565b60405162461bcd60e51b815260206004820152602260248201527f4d61726b6574706c6163653a207072696365206d757374206265206e6f6e7a65604482015261726f60f01b6064820152608490fd5b9190811015610c4e5760051b0190565b634e487b7160e01b5f52603260045260245ffd5b15610c6957565b60405162461bcd60e51b815260206004820152601c60248201527f4d61726b6574706c6163653a206e6f7420746f6b656e206f776e6572000000006044820152606490fd5b15610cb557565b60405162461bcd60e51b815260206004820152601b60248201527f4d61726b6574706c6163653a20616c7265616479206c697374656400000000006044820152606490fd5b15610d0157565b60405162461bcd60e51b815260206004820152601c60248201527f4d61726b6574706c6163653a20746f6b656e206973207374616b6564000000006044820152606490fd5b15610d4d57565b60405162461bcd60e51b815260206004820152601e60248201527f4d61726b6574706c6163653a20746f6b656e20697320626f72726f77656400006044820152606490fd5b604051906060820182811067ffffffffffffffff821117610db257604052565b634e487b7160e01b5f52604160045260245ffd5b6040519190601f01601f1916820167ffffffffffffffff811183821017610db257604052565b15610df357565b60405162461bcd60e51b815260206004820152601760248201527f4d61726b6574706c6163653a206e6f742073656c6c65720000000000000000006044820152606490fd5b15610e3f57565b60405162461bcd60e51b815260206004820152601760248201527f4d61726b6574706c6163653a206e6f74206c69737465640000000000000000006044820152606490fd5b9190820391821161069e57565b5f19811461069e5760010190565b67ffffffffffffffff8111610db25760051b60200190565b90610ec46100d283610e9f565b8281528092610ed5601f1991610e9f565b0190602036910137565b8051821015610c4e5760209160051b01019056fea264697066735822122027cda5e9116a0ad6d8b7035a946b00b1fd457b8accdca6d01ef5862db5c6bb9d64736f6c634300081e0033",
        "nonce": "0x4a",
        "chainId": "0x85"
      },
      "additionalContracts": [],
      "isFixedGasLimit": false
    },
    {
      "hash": "0x22feb80431c248552b16fc53828ca37daff831a5a6ff14b757b2aa6bd3d5abec",
      "transactionType": "CALL",
      "contractName": null,
      "contractAddress": "0x6e6742ba7c02214c2b798954f1084d94e7f02b0c",
      "function": "propose(bytes)",
      "arguments": [
        "0x1f931c1c0000000000000000000000000000000000000000000000000000000000000060000000000000000000000000000000000000000000000000000000000000000000000000000000000000000000000000000000000000000000000000000002e00000000000000000000000000000000000000000000000000000000000000002000000000000000000000000000000000000000000000000000000000000004000000000000000000000000000000000000000000000000000000000000001c000000000000000000000000025c8216be90034a514ecccd52a1c373ab8f8df8600000000000000000000000000000000000000000000000000000000000000010000000000000000000000000000000000000000000000000000000000000060000000000000000000000000000000000000000000000000000000000000000851ed828800000000000000000000000000000000000000000000000000000000305a67a800000000000000000000000000000000000000000000000000000000a308f2b400000000000000000000000000000000000000000000000000000000107a274a000000000000000000000000000000000000000000000000000000006ea8bc100000000000000000000000000000000000000000000000000000000094383f140000000000000000000000000000000000000000000000000000000012e8e2c30000000000000000000000000000000000000000000000000000000082367b2d0000000000000000000000000000000000000000000000000000000000000000000000000000000025c8216be90034a514ecccd52a1c373ab8f8df8600000000000000000000000000000000000000000000000000000000000000000000000000000000000000000000000000000000000000000000000000000060000000000000000000000000000000000000000000000000000000000000000100e296c7000000000000000000000000000000000000000000000000000000000000000000000000000000000000000000000000000000000000000000000000"
      ],
      "transaction": {
        "from": "0xb8cf8e77c2b92ce0c0fb3efa4b04cebfde557695",
        "to": "0x6e6742ba7c02214c2b798954f1084d94e7f02b0c",
        "gas": "0xc988b",
        "value": "0x0",
        "input": "0x37558af5000000000000000000000000000000000000000000000000000000000000002000000000000000000000000000000000000000000000000000000000000003041f931c1c0000000000000000000000000000000000000000000000000000000000000060000000000000000000000000000000000000000000000000000000000000000000000000000000000000000000000000000000000000000000000000000002e00000000000000000000000000000000000000000000000000000000000000002000000000000000000000000000000000000000000000000000000000000004000000000000000000000000000000000000000000000000000000000000001c000000000000000000000000025c8216be90034a514ecccd52a1c373ab8f8df8600000000000000000000000000000000000000000000000000000000000000010000000000000000000000000000000000000000000000000000000000000060000000000000000000000000000000000000000000000000000000000000000851ed828800000000000000000000000000000000000000000000000000000000305a67a800000000000000000000000000000000000000000000000000000000a308f2b400000000000000000000000000000000000000000000000000000000107a274a000000000000000000000000000000000000000000000000000000006ea8bc100000000000000000000000000000000000000000000000000000000094383f140000000000000000000000000000000000000000000000000000000012e8e2c30000000000000000000000000000000000000000000000000000000082367b2d0000000000000000000000000000000000000000000000000000000000000000000000000000000025c8216be90034a514ecccd52a1c373ab8f8df8600000000000000000000000000000000000000000000000000000000000000000000000000000000000000000000000000000000000000000000000000000060000000000000000000000000000000000000000000000000000000000000000100e296c700000000000000000000000000000000000000000000000000000000000000000000000000000000000000000000000000000000000000000000000000000000000000000000000000000000000000000000000000000000",
        "nonce": "0x4b",
        "chainId": "0x85"
      },
      "additionalContracts": [],
      "isFixedGasLimit": false
    },
    {
      "hash": "0xeb42fbde4ab0a8ab62a2c2024522eb8cd8d52f4bd8a5eda128614f376c93f18d",
      "transactionType": "CALL",
      "contractName": null,
      "contractAddress": "0x6e6742ba7c02214c2b798954f1084d94e7f02b0c",
      "function": "approve(uint256)",
      "arguments": [
        "13"
      ],
      "transaction": {
        "from": "0xb8cf8e77c2b92ce0c0fb3efa4b04cebfde557695",
        "to": "0x6e6742ba7c02214c2b798954f1084d94e7f02b0c",
        "gas": "0x1c69f",
        "value": "0x0",
        "input": "0xb759f954000000000000000000000000000000000000000000000000000000000000000d",
        "nonce": "0x4c",
        "chainId": "0x85"
      },
      "additionalContracts": [],
      "isFixedGasLimit": false
    },
    {
      "hash": "0x7f9a775d97bb6e26acc58b2c93105c9ba1195cd8391c247e1dbde8e5aae893ef",
      "transactionType": "CALL",
      "contractName": null,
      "contractAddress": "0x6e6742ba7c02214c2b798954f1084d94e7f02b0c",
      "function": "execute(uint256)",
      "arguments": [
        "13"
      ],
      "transaction": {
        "from": "0xb8cf8e77c2b92ce0c0fb3efa4b04cebfde557695",
        "to": "0x6e6742ba7c02214c2b798954f1084d94e7f02b0c",
        "gas": "0x78872",
        "value": "0x0",
        "input": "0xfe0d94c1000000000000000000000000000000000000000000000000000000000000000d",
        "nonce": "0x4d",
        "chainId": "0x85"
      },
      "additionalContracts": [],
      "isFixedGasLimit": false
    }
  ],
  "receipts": [
    {
      "status": "0x1",
      "cumulativeGasUsed": "0xe46a4",
      "logs": [],
      "logsBloom": "0x00000000000000000000000000000000000000000000000000000000000000000000000000000000000000000000000000000000000000000000000000000000000000000000000000000000000000000000000000000000000000000000000000000000000000000000000000000000000000000000000000000000000000000000000000000000000000000000000000000000000000000000000000000000000000000000000000000000000000000000000000000000000000000000000000000000000000000000000000000000000000000000000000000000000000000000000000000000000000000000000000000000000000000000000000000000",
      "type": "0x2",
      "transactionHash": "0x13a793edd92398c828cd8a527310fdf17a4811c00467d7e022d08862fc8ed4a1",
      "transactionIndex": "0x1",
      "blockHash": "0xcb5a20e529e6659e0ba7461cc306e079489527367ed9568e00eed9f687252413",
      "blockNumber": "0x19025c6",
      "gasUsed": "0xd9b3e",
      "effectiveGasPrice": "0xfe",
      "from": "0xb8cf8e77c2b92ce0c0fb3efa4b04cebfde557695",
      "to": null,
      "contractAddress": "0x25c8216be90034a514ecccd52a1c373ab8f8df86",
      "l1BaseFeeScalar": "0x2710",
      "l1BlobBaseFee": "0xf9b202b",
      "l1BlobBaseFeeScalar": "0x2710",
      "l1Fee": "0x13ffbd8852f",
      "l1GasPrice": "0xf6ce6620",
      "l1GasUsed": "0x8123"
    },
    {
      "status": "0x1",
      "cumulativeGasUsed": "0x16e375",
      "logs": [
        {
          "address": "0x6e6742ba7c02214c2b798954f1084d94e7f02b0c",
          "topics": [
            "0x11641d364e926d2bf231c2d36f2a9271390042d717ea334a3e7c983c27a12391",
            "0x000000000000000000000000000000000000000000000000000000000000000d",
            "0x000000000000000000000000b8cf8e77c2b92ce0c0fb3efa4b04cebfde557695"
          ],
          "data": "0x",
          "blockHash": "0xcb5a20e529e6659e0ba7461cc306e079489527367ed9568e00eed9f687252413",
          "blockNumber": "0x19025c6",
          "blockTimestamp": "0x69d6096c",
          "transactionHash": "0x22feb80431c248552b16fc53828ca37daff831a5a6ff14b757b2aa6bd3d5abec",
          "transactionIndex": "0x2",
          "logIndex": "0x0",
          "removed": false
        }
      ],
      "logsBloom": "0x00000008000000000040000000000000000000000000000000000000000000000200000000000000000000000000000000000000000000000000000000000000000000000000000000000000000000800002000000000000000000000000000000000000020000000000000000000000800000000000000000000000000000000000000008000000001000000000000000000000000000000000000000000000000000000000000000000000000000000000000000000000000000000000000000000000000000000000000000040000000000000000000000000000000000020000000000000000000000000000000000000000040000000000000000000000",
      "type": "0x2",
      "transactionHash": "0x22feb80431c248552b16fc53828ca37daff831a5a6ff14b757b2aa6bd3d5abec",
      "transactionIndex": "0x2",
      "blockHash": "0xcb5a20e529e6659e0ba7461cc306e079489527367ed9568e00eed9f687252413",
      "blockNumber": "0x19025c6",
      "gasUsed": "0x89cd1",
      "effectiveGasPrice": "0xfe",
      "from": "0xb8cf8e77c2b92ce0c0fb3efa4b04cebfde557695",
      "to": "0x6e6742ba7c02214c2b798954f1084d94e7f02b0c",
      "contractAddress": null,
      "l1BaseFeeScalar": "0x2710",
      "l1BlobBaseFee": "0xf9b202b",
      "l1BlobBaseFeeScalar": "0x2710",
      "l1Fee": "0x2214e6f6a2",
      "l1GasPrice": "0xf6ce6620",
      "l1GasUsed": "0xdc1"
    },
    {
      "status": "0x1",
      "cumulativeGasUsed": "0x181a50",
      "logs": [
        {
          "address": "0x6e6742ba7c02214c2b798954f1084d94e7f02b0c",
          "topics": [
            "0x049c28adfe50bcf1b76fd95273b6a24566b9f377e52fddc653c3355248dad07a",
            "0x000000000000000000000000000000000000000000000000000000000000000d",
            "0x000000000000000000000000b8cf8e77c2b92ce0c0fb3efa4b04cebfde557695"
          ],
          "data": "0x",
          "blockHash": "0xcb5a20e529e6659e0ba7461cc306e079489527367ed9568e00eed9f687252413",
          "blockNumber": "0x19025c6",
          "blockTimestamp": "0x69d6096c",
          "transactionHash": "0xeb42fbde4ab0a8ab62a2c2024522eb8cd8d52f4bd8a5eda128614f376c93f18d",
          "transactionIndex": "0x3",
          "logIndex": "0x1",
          "removed": false
        }
      ],
      "logsBloom": "0x00000008000000000040000000000000000000000000000000000000000000000200000000000000000000000000000000000800000000000000000000000000000000000000000000000000000000000002000000000000000000000000000000000000000000000000000000000000802000000000000000000000000000000000000000000000001000000000000000000000000000000000000000000000000000000000000000000000000000000000000000000000000000000000000000000000000000000000000000040000000000000000000080000000000000020000000000000000000000000000000000000000040000000000000000000000",
      "type": "0x2",
      "transactionHash": "0xeb42fbde4ab0a8ab62a2c2024522eb8cd8d52f4bd8a5eda128614f376c93f18d",
      "transactionIndex": "0x3",
      "blockHash": "0xcb5a20e529e6659e0ba7461cc306e079489527367ed9568e00eed9f687252413",
      "blockNumber": "0x19025c6",
      "gasUsed": "0x136db",
      "effectiveGasPrice": "0xfe",
      "from": "0xb8cf8e77c2b92ce0c0fb3efa4b04cebfde557695",
      "to": "0x6e6742ba7c02214c2b798954f1084d94e7f02b0c",
      "contractAddress": null,
      "l1BaseFeeScalar": "0x2710",
      "l1BlobBaseFee": "0xf9b202b",
      "l1BlobBaseFeeScalar": "0x2710",
      "l1Fee": "0xf7c81822b",
      "l1GasPrice": "0xf6ce6620",
      "l1GasUsed": "0x640"
    },
    {
      "status": "0x1",
      "cumulativeGasUsed": "0x1d40e9",
      "logs": [
        {
          "address": "0x6e6742ba7c02214c2b798954f1084d94e7f02b0c",
          "topics": [
            "0x8faa70878671ccd212d20771b795c50af8fd3ff6cf27f4bde57e5d4de0aeb673"
          ],
          "data": "0x0000000000000000000000000000000000000000000000000000000000000060000000000000000000000000000000000000000000000000000000000000000000000000000000000000000000000000000000000000000000000000000002e00000000000000000000000000000000000000000000000000000000000000002000000000000000000000000000000000000000000000000000000000000004000000000000000000000000000000000000000000000000000000000000001c000000000000000000000000025c8216be90034a514ecccd52a1c373ab8f8df8600000000000000000000000000000000000000000000000000000000000000010000000000000000000000000000000000000000000000000000000000000060000000000000000000000000000000000000000000000000000000000000000851ed828800000000000000000000000000000000000000000000000000000000305a67a800000000000000000000000000000000000000000000000000000000a308f2b400000000000000000000000000000000000000000000000000000000107a274a000000000000000000000000000000000000000000000000000000006ea8bc100000000000000000000000000000000000000000000000000000000094383f140000000000000000000000000000000000000000000000000000000012e8e2c30000000000000000000000000000000000000000000000000000000082367b2d0000000000000000000000000000000000000000000000000000000000000000000000000000000025c8216be90034a514ecccd52a1c373ab8f8df8600000000000000000000000000000000000000000000000000000000000000000000000000000000000000000000000000000000000000000000000000000060000000000000000000000000000000000000000000000000000000000000000100e296c7000000000000000000000000000000000000000000000000000000000000000000000000000000000000000000000000000000000000000000000000",
          "blockHash": "0xcb5a20e529e6659e0ba7461cc306e079489527367ed9568e00eed9f687252413",
          "blockNumber": "0x19025c6",
          "blockTimestamp": "0x69d6096c",
          "transactionHash": "0x7f9a775d97bb6e26acc58b2c93105c9ba1195cd8391c247e1dbde8e5aae893ef",
          "transactionIndex": "0x4",
          "logIndex": "0x2",
          "removed": false
        },
        {
          "address": "0x6e6742ba7c02214c2b798954f1084d94e7f02b0c",
          "topics": [
            "0x712ae1383f79ac853f8d882153778e0260ef8f03b504e2866e0593e04d2b291f",
            "0x000000000000000000000000000000000000000000000000000000000000000d"
          ],
          "data": "0x",
          "blockHash": "0xcb5a20e529e6659e0ba7461cc306e079489527367ed9568e00eed9f687252413",
          "blockNumber": "0x19025c6",
          "blockTimestamp": "0x69d6096c",
          "transactionHash": "0x7f9a775d97bb6e26acc58b2c93105c9ba1195cd8391c247e1dbde8e5aae893ef",
          "transactionIndex": "0x4",
          "logIndex": "0x3",
          "removed": false
        }
      ],
      "logsBloom": "0x00000000000000000040000000000000000000000000000000000000000000000200000000000000000000000000000000000000000000000000000000000000000000000000000000000000000000000002004001000000000800000000000000000000000000000000000000000000000000000000000000000000000000000020000000000000001000000000000000000000000000000000000000000000000000000020000000000000000000000000000000000000000020000000000000000000000000000000000000040000000000000000000000000000000000020000000000000000000000000000000000000000000000000000000000000000",
      "type": "0x2",
      "transactionHash": "0x7f9a775d97bb6e26acc58b2c93105c9ba1195cd8391c247e1dbde8e5aae893ef",
      "transactionIndex": "0x4",
      "blockHash": "0xcb5a20e529e6659e0ba7461cc306e079489527367ed9568e00eed9f687252413",
      "blockNumber": "0x19025c6",
      "gasUsed": "0x52699",
      "effectiveGasPrice": "0xfe",
      "from": "0xb8cf8e77c2b92ce0c0fb3efa4b04cebfde557695",
      "to": "0x6e6742ba7c02214c2b798954f1084d94e7f02b0c",
      "contractAddress": null,
      "l1BaseFeeScalar": "0x2710",
      "l1BlobBaseFee": "0xf9b202b",
      "l1BlobBaseFeeScalar": "0x2710",
      "l1Fee": "0xf7c81822b",
      "l1GasPrice": "0xf6ce6620",
      "l1GasUsed": "0x640"
    }
  ],
  "libraries": [],
  "pending": [],
  "returns": {},
  "timestamp": 1775634796848,
  "chain": 133,
  "commit": "bf28999"
}